:060000000A128A11122809
:10000800FF00030883120313BB000408BC000A089E
:10001800BD007E08BE000A128A112F2B0A128A110F
:10002800AA2B83160313AD002D080339031D1D28C1
:100038001E2860282D0883120313B800023003100D
:10004800B80CFF3E031D2328381C2B282F288312A9
:100058000313081632288312031308128316031396
:100068002D0883120313B80003300310B80CFF3EA9
:10007800031D392838080139F400831603132D08A5
:1000880083120313B80004300310B80CFF3E031D9D
:10009800482838080139F300831603132D08831202
:1000A8000313B80005300310B80CFF3E031D572892
:1000B80038080739C40032292D080339013A031DCD
:1000C80066286728C828700883120313B800B90186
:1000D800380883160313AB008312031339088316F9
:1000E8000313AC002D1D79287A288928831203135D
:1000F8005508B800B901380883160313AB008312FA
:100108000313390883160313AC002B08A8002D0825
:1001180083120313B80003300310B80CFF3E031D0D
:10012800902838081F39B900BA013908B0003A08D0
:10013800B1002130B2000030B3000A128A115B23EB
:100148000A128A11831383120313310883160313C7
:10015800A401A40783120313300883160313A30111
:10016800A3072408A101A1072308A001A0072808C4
:1001780083120313B800380883160313A2000A1267
:100188008A11D3220A128A11831603132D08033900
:10019800023A031DD028D1283229831203135608A6
:1001A800B800B901380883160313A9008312031392
:1001B800390883160313AA002D1DE328E428F32821
:1001C800831203134308B800B901380883160313D0
:1001D800A90083120313390883160313AA002908F8
:1001E800A7002D0883120313B80003300310B80CBE
:1001F800FF3E031DFA2838081F39B900BA0139082B
:10020800B0003A08B1002130B2000030B3000A1241
:100218008A115B230A128A1183138312031331088C
:1002280083160313A601A607831203133008831647
:100238000313A501A5072608A101A1072508A00108
:10024800A007270883120313B8003808831603137E
:10025800A2000A128A1101230A128A1108008316C1
:1002680003138817081708128312031308160A12B3
:100278008A11C9230A128A117308031D44295229B5
:100288000A128A1151220A128A1184008313000863
:1002980083120313CD00840A0008CE007408031DDE
:1002A800562964290A128A1186230A128A1184009F
:1002B8008313000883120313D100840A0008D200B4
:1002C800031083120313081F0314003003180130AE
:1002D800A1000310881F03140030031801300A120C
:1002E8008A110C240A128A11F5007408F80078089B
:1002F80083120313A6004D30A5005130F900790888
:10030800A7007508FA007A08A900450875060030A4
:10031800031D0130FB007B08A80073080A128A112C
:100328009A220A128A110310003003180130F300D0
:100338000310003003180130F4007508831203130A
:10034800C50040290A128A1112280A128A113A2471
:100358000A128A11831603130711881087100810D0
:10036800831203133108AF003008AE0002300310C7
:10037800AF0CAE0CFF3E031DBB292E08950097124B
:100388003018C729CB29831203131716CE298312D5
:10039800031317123408AF003308AE0002300310FD
:1003A800AF0CAE0CFF3E031DD3292E089B009D12F7
:1003B8003318DF29E329831203131D16E629831254
:1003C80003131D123218E929ED2983120313881427
:1003D800F0298312031388103518F329F72983129B
:1003E80003130814FA298312031308109715171515
:1003F8009D151D150A128A1148240A128A1108002F
:1004080083120313A0000030A1000030A200202AAC
:1004180083160313981C112A122A0C2A8312031319
:100428002108200784008313000899000130A107E0
:100438000318A20A0030A2072208803AF60080308A
:100448007602031D292A23082102031C2C2A2D2A9F
:100458000C2A003083120313A1000030A200831677
:100468000313981C382A392A332AFF3083120313BE
:1004780099000130A1070318A20A0030A207220838
:10048800803AF60080307602031D4C2A053021029E
:10049800031C4F2A502A332A080083120313881298
:1004A8008316031388120A128A11E0230A128A118A
:1004B8008312031388160A128A11E0230A128A117A
:1004C8008312031388120A128A11E0230A128A116E
:1004D80083160313881603100030031801308312A3
:1004E80003138F0003100030031801308E003030E2
:1004F80090000C10881E812A822A7E2A1014881ADD
:10050800862A872A832A10108316031388128312D7
:1005180003130F08D3000E08F6007608D4000A1259
:100528008A111C240A128A115330080083120313FB
:10053800A400A408031DA12AA22AAD2AA608031D07
:10054800A62AA72AAD2AA808031DAB2AAC2AAD2AD9
:10055800D22A2508840083130008C8002508013E14
:1005680084000008F7007708C900270884000008FD
:10057800F7007708CA002708013E84000008F70042
:100588007708CB002908F7007708CC000530A300CE
:1005980048300A128A1104220A128A1108008316A6
:1005A8000313210883120313C001C0078316031322
:1005B800200883120313BF01BF0783160313220801
:1005C800F100710883120313B6003608B200400820
:1005D800B101B1073F08B001B0077208B70037088A
:1005E800B5004208B401B4074108B301B3070A12C1
:1005F8008A11A9210A128A110800831603132108F7
:1006080083120313C201C20783160313200883123F
:100618000313C101C107831603132208F2007108EE
:1006280083120313B6003608B2004008B101B107BF
:100638003F08B001B0077208B7003708B500420894
:10064800B401B4074108B301B3070A128A11A921FA
:100658000A128A1108008C1E322B332B4E2B981845
:10066800362B372B492B18193A2B3B2B452B1A08BD
:1006780083160313AF002F080A128A1115200A12D5
:100688008A11831203131A084E2B0A128A112C247A
:100698000A128A11831203133E08FE003D088A00DD
:1006A8003C0884003B088300FF0E7F0E09000030E1
:1006B80083120313AE000030AF00301C642B652B8F
:1006C8006B2B3208AE070318AF0A3308AF070130A7
:1006D8000310B20DB30DFF3E031D6C2B0130031048
:1006E800B10CB00CFF3E031D732B31083004031D01
:1006F8007E2B7F2B612B2F08B101B1072E08B0018B
:10070800B00708008030831203139F00CE30831691
:1007180003139F00831203131F140A128A11E02384
:100728000A128A11831203131F151F199C2B9D2B64
:10073800992B1F101E08CF00831603131E08F600FE
:10074800760883120313D0004F300800F001F1013E
:10075800F201F301F401F50183133F3084005530B1
:100768000A128A1152240A128A110A128A115A2468
:100778000A128A11D5000A128A115B240A128A11F8
:10078800D60083010A128A1133298316031307132B
:10079800871718139816181218118312031398172D
:1007A800181318160F308316031399008C1683122A
:1007B80003138B170B170800FF30831203138F00E6
:1007C800FE308E000C102030900010140C1CED2B05
:1007D800EE2BEA2B101000000000000000000000C3
:1007E80000000800FF30831203138F00FE308E00D4
:1007F8000C102030900010140C1C032C042C002C1E
:1008080010100000000000000000000000000800B8
:1008180083120313A00020080139F60001300310E9
:10082800F60DFF3E031D132C210801397607080039
:10083800C430831203138F0003308E000C10303045
:10084800900010140C1C292C2A2C262C101008009F
:1008580083120313981318120A128A11F6230A1224
:100868008A11831203139817181608000310003012
:100878000318013083120313970003100030031884
:1008880001309D0012110800FF30831603139200F7
:1008980083120313921412141215080064008001C5
:1008A800840A0406031900340406532C0134013465
:02400E00323F3F
:00000001FF
